{
  "contractName": "KarmaAuditAttestor",
  "abi": [
    {
      "inputs": [
        {
          "internalType": "contract MasterRegistry",
          "name": "_masterRegistry",
          "type": "address"
        },
        {
          "internalType": "contract SchemasRegistry",
          "name": "_schemasRegistry",
          "type": "address"
        },
        {
          "internalType": "contract ModulesRegistry",
          "name": "_modulesRegistry",
          "type": "address"
        },
        {
          "internalType": "address[]",
          "name": "_modules",
          "type": "address[]"
        }
      ],
      "stateMutability": "nonpayable",
      "type": "constructor"
    },
    {
      "inputs": [],
      "name": "AlreadyAttested",
      "type": "error"
    },
    {
      "inputs": [],
      "name": "ArrayLengthMismatch",
      "type": "error"
    },
    {
      "inputs": [],
      "name": "InvalidMasterRegistry",
      "type": "error"
    },
    {
      "inputs": [],
      "name": "InvalidSchemasRegistry",
      "type": "error"
    },
    {
      "inputs": [],
      "name": "InvalidSignature",
      "type": "error"
    },
    {
      "inputs": [
        {
          "internalType": "address",
          "name": "module",
          "type": "address"
        }
      ],
      "name": "ModuleFailed",
      "type": "error"
    },
    {
      "inputs": [
        {
          "internalType": "address",
          "name": "module",
          "type": "address"
        }
      ],
      "name": "ModuleNotRegistered",
      "type": "error"
    },
    {
      "inputs": [],
      "name": "NoModulesProvided",
      "type": "error"
    },
    {
      "inputs": [],
      "name": "UnsupportedSchema",
      "type": "error"
    },
    {
      "inputs": [],
      "name": "$masterRegistry",
      "outputs": [
        {
          "internalType": "contract MasterRegistry",
          "name": "",
          "type": "address"
        }
      ],
      "stateMutability": "view",
      "type": "function"
    },
    {
      "inputs": [
        {
          "internalType": "uint256",
          "name": "",
          "type": "uint256"
        }
      ],
      "name": "$modules",
      "outputs": [
        {
          "internalType": "address",
          "name": "",
          "type": "address"
        }
      ],
      "stateMutability": "view",
      "type": "function"
    },
    {
      "inputs": [],
      "name": "$modulesRegistry",
      "outputs": [
        {
          "internalType": "contract ModulesRegistry",
          "name": "",
          "type": "address"
        }
      ],
      "stateMutability": "view",
      "type": "function"
    },
    {
      "inputs": [],
      "name": "$schemasRegistry",
      "outputs": [
        {
          "internalType": "contract SchemasRegistry",
          "name": "",
          "type": "address"
        }
      ],
      "stateMutability": "view",
      "type": "function"
    },
    {
      "inputs": [
        {
          "components": [
            {
              "internalType": "bytes32",
              "name": "schemaId",
              "type": "bytes32"
            },
            {
              "internalType": "bytes32",
              "name": "parentId",
              "type": "bytes32"
            },
            {
              "internalType": "address",
              "name": "attestor",
              "type": "address"
            },
            {
              "internalType": "address",
              "name": "attestee",
              "type": "address"
            },
            {
              "internalType": "uint64",
              "name": "expirationDate",
              "type": "uint64"
            },
            {
              "internalType": "bytes[]",
              "name": "attestationData",
              "type": "bytes[]"
            }
          ],
          "internalType": "struct AttestationRequest",
          "name": "_attestationRequest",
          "type": "tuple"
        },
        {
          "internalType": "bytes[]",
          "name": "_data",
          "type": "bytes[]"
        }
      ],
      "name": "attest",
      "outputs": [],
      "stateMutability": "payable",
      "type": "function"
    },
    {
      "inputs": [
        {
          "components": [
            {
              "internalType": "bytes32",
              "name": "schemaId",
              "type": "bytes32"
            },
            {
              "internalType": "bytes32",
              "name": "parentId",
              "type": "bytes32"
            },
            {
              "internalType": "address",
              "name": "attestor",
              "type": "address"
            },
            {
              "internalType": "address",
              "name": "attestee",
              "type": "address"
            },
            {
              "internalType": "uint64",
              "name": "expirationDate",
              "type": "uint64"
            },
            {
              "internalType": "bytes[]",
              "name": "attestationData",
              "type": "bytes[]"
            }
          ],
          "internalType": "struct AttestationRequest[]",
          "name": "_attestationRequests",
          "type": "tuple[]"
        },
        {
          "internalType": "bytes[][]",
          "name": "_data",
          "type": "bytes[][]"
        }
      ],
      "name": "attestBatch",
      "outputs": [],
      "stateMutability": "payable",
      "type": "function"
    },
    {
      "inputs": [
        {
          "components": [
            {
              "internalType": "bytes32",
              "name": "schemaId",
              "type": "bytes32"
            },
            {
              "internalType": "bytes32",
              "name": "parentId",
              "type": "bytes32"
            },
            {
              "internalType": "address",
              "name": "attestor",
              "type": "address"
            },
            {
              "internalType": "address",
              "name": "attestee",
              "type": "address"
            },
            {
              "internalType": "uint64",
              "name": "expirationDate",
              "type": "uint64"
            },
            {
              "internalType": "bytes[]",
              "name": "attestationData",
              "type": "bytes[]"
            }
          ],
          "internalType": "struct AttestationRequest",
          "name": "_attestationRequest",
          "type": "tuple"
        },
        {
          "components": [
            {
              "internalType": "uint8",
              "name": "v",
              "type": "uint8"
            },
            {
              "internalType": "bytes32",
              "name": "r",
              "type": "bytes32"
            },
            {
              "internalType": "bytes32",
              "name": "s",
              "type": "bytes32"
            },
            {
              "internalType": "address",
              "name": "signer",
              "type": "address"
            }
          ],
          "internalType": "struct EIP712Signature",
          "name": "_signature",
          "type": "tuple"
        },
        {
          "internalType": "bytes[]",
          "name": "_data",
          "type": "bytes[]"
        }
      ],
      "name": "delagatedAttest",
      "outputs": [],
      "stateMutability": "payable",
      "type": "function"
    },
    {
      "inputs": [
        {
          "components": [
            {
              "internalType": "bytes32",
              "name": "schemaId",
              "type": "bytes32"
            },
            {
              "internalType": "bytes32",
              "name": "parentId",
              "type": "bytes32"
            },
            {
              "internalType": "address",
              "name": "attestor",
              "type": "address"
            },
            {
              "internalType": "address",
              "name": "attestee",
              "type": "address"
            },
            {
              "internalType": "uint64",
              "name": "expirationDate",
              "type": "uint64"
            },
            {
              "internalType": "bytes[]",
              "name": "attestationData",
              "type": "bytes[]"
            }
          ],
          "internalType": "struct AttestationRequest[]",
          "name": "_attestationRequests",
          "type": "tuple[]"
        },
        {
          "components": [
            {
              "internalType": "uint8",
              "name": "v",
              "type": "uint8"
            },
            {
              "internalType": "bytes32",
              "name": "r",
              "type": "bytes32"
            },
            {
              "internalType": "bytes32",
              "name": "s",
              "type": "bytes32"
            },
            {
              "internalType": "address",
              "name": "signer",
              "type": "address"
            }
          ],
          "internalType": "struct EIP712Signature[]",
          "name": "_signatures",
          "type": "tuple[]"
        },
        {
          "internalType": "bytes[][]",
          "name": "_data",
          "type": "bytes[][]"
        }
      ],
      "name": "delegatedAttestBatch",
      "outputs": [],
      "stateMutability": "payable",
      "type": "function"
    },
    {
      "inputs": [
        {
          "components": [
            {
              "internalType": "bytes32",
              "name": "attestationId",
              "type": "bytes32"
            },
            {
              "internalType": "uint64",
              "name": "expirationDate",
              "type": "uint64"
            },
            {
              "internalType": "bytes[]",
              "name": "attestationData",
              "type": "bytes[]"
            }
          ],
          "internalType": "struct UpdateRequest",
          "name": "_updateRequest",
          "type": "tuple"
        },
        {
          "components": [
            {
              "internalType": "uint8",
              "name": "v",
              "type": "uint8"
            },
            {
              "internalType": "bytes32",
              "name": "r",
              "type": "bytes32"
            },
            {
              "internalType": "bytes32",
              "name": "s",
              "type": "bytes32"
            },
            {
              "internalType": "address",
              "name": "signer",
              "type": "address"
            }
          ],
          "internalType": "struct EIP712Signature",
          "name": "_signature",
          "type": "tuple"
        },
        {
          "internalType": "bytes[]",
          "name": "_data",
          "type": "bytes[]"
        }
      ],
      "name": "delegatedUpdate",
      "outputs": [],
      "stateMutability": "payable",
      "type": "function"
    },
    {
      "inputs": [
        {
          "components": [
            {
              "internalType": "bytes32",
              "name": "attestationId",
              "type": "bytes32"
            },
            {
              "internalType": "uint64",
              "name": "expirationDate",
              "type": "uint64"
            },
            {
              "internalType": "bytes[]",
              "name": "attestationData",
              "type": "bytes[]"
            }
          ],
          "internalType": "struct UpdateRequest[]",
          "name": "_updateRequests",
          "type": "tuple[]"
        },
        {
          "components": [
            {
              "internalType": "uint8",
              "name": "v",
              "type": "uint8"
            },
            {
              "internalType": "bytes32",
              "name": "r",
              "type": "bytes32"
            },
            {
              "internalType": "bytes32",
              "name": "s",
              "type": "bytes32"
            },
            {
              "internalType": "address",
              "name": "signer",
              "type": "address"
            }
          ],
          "internalType": "struct EIP712Signature[]",
          "name": "_signatures",
          "type": "tuple[]"
        },
        {
          "internalType": "bytes[][]",
          "name": "_data",
          "type": "bytes[][]"
        }
      ],
      "name": "delegatedUpdateBatch",
      "outputs": [],
      "stateMutability": "payable",
      "type": "function"
    },
    {
      "inputs": [
        {
          "components": [
            {
              "internalType": "bytes32",
              "name": "schemaId",
              "type": "bytes32"
            },
            {
              "internalType": "bytes32",
              "name": "parentId",
              "type": "bytes32"
            },
            {
              "internalType": "address",
              "name": "attestor",
              "type": "address"
            },
            {
              "internalType": "address",
              "name": "attestee",
              "type": "address"
            },
            {
              "internalType": "uint64",
              "name": "expirationDate",
              "type": "uint64"
            },
            {
              "internalType": "bytes[]",
              "name": "attestationData",
              "type": "bytes[]"
            }
          ],
          "internalType": "struct AttestationRequest",
          "name": "data",
          "type": "tuple"
        }
      ],
      "name": "getStructHash",
      "outputs": [
        {
          "internalType": "bytes32",
          "name": "",
          "type": "bytes32"
        }
      ],
      "stateMutability": "pure",
      "type": "function"
    },
    {
      "inputs": [
        {
          "internalType": "bytes32",
          "name": "_attestationId",
          "type": "bytes32"
        }
      ],
      "name": "revoke",
      "outputs": [],
      "stateMutability": "nonpayable",
      "type": "function"
    },
    {
      "inputs": [
        {
          "internalType": "bytes4",
          "name": "interfaceId",
          "type": "bytes4"
        }
      ],
      "name": "supportsInterface",
      "outputs": [
        {
          "internalType": "bool",
          "name": "",
          "type": "bool"
        }
      ],
      "stateMutability": "pure",
      "type": "function"
    },
    {
      "inputs": [
        {
          "components": [
            {
              "internalType": "bytes32",
              "name": "attestationId",
              "type": "bytes32"
            },
            {
              "internalType": "uint64",
              "name": "expirationDate",
              "type": "uint64"
            },
            {
              "internalType": "bytes[]",
              "name": "attestationData",
              "type": "bytes[]"
            }
          ],
          "internalType": "struct UpdateRequest",
          "name": "_updateRequest",
          "type": "tuple"
        },
        {
          "internalType": "bytes[]",
          "name": "_data",
          "type": "bytes[]"
        }
      ],
      "name": "update",
      "outputs": [],
      "stateMutability": "payable",
      "type": "function"
    },
    {
      "inputs": [
        {
          "components": [
            {
              "internalType": "bytes32",
              "name": "attestationId",
              "type": "bytes32"
            },
            {
              "internalType": "uint64",
              "name": "expirationDate",
              "type": "uint64"
            },
            {
              "internalType": "bytes[]",
              "name": "attestationData",
              "type": "bytes[]"
            }
          ],
          "internalType": "struct UpdateRequest[]",
          "name": "_updateRequest",
          "type": "tuple[]"
        },
        {
          "internalType": "bytes[][]",
          "name": "_data",
          "type": "bytes[][]"
        }
      ],
      "name": "updateBatch",
      "outputs": [],
      "stateMutability": "payable",
      "type": "function"
    }
  ],
  "bytecode": "0x60806040523480156200001157600080fd5b5060405162003eaf38038062003eaf8339818101604052810190620000379190620006c0565b83838383600073ffffffffffffffffffffffffffffffffffffffff168473ffffffffffffffffffffffffffffffffffffffff1603620000a2576040517f1fd16aa000000000000000000000000000000000000000000000000000000000815260040160405180910390fd5b600073ffffffffffffffffffffffffffffffffffffffff168373ffffffffffffffffffffffffffffffffffffffff160362000109576040517f44cc695e00000000000000000000000000000000000000000000000000000000815260040160405180910390fd5b600081510362000145576040517f13f3c7d700000000000000000000000000000000000000000000000000000000815260040160405180910390fd5b60005b81518110156200026b5760008373ffffffffffffffffffffffffffffffffffffffff1663c3c5a54784848151811062000186576200018562000751565b5b60200260200101516040518263ffffffff1660e01b8152600401620001ac919062000791565b602060405180830381865afa158015620001ca573d6000803e3d6000fd5b505050506040513d601f19601f82011682018060405250810190620001f09190620007eb565b90508062000254578282815181106200020e576200020d62000751565b5b60200260200101516040517fb7f884550000000000000000000000000000000000000000000000000000000081526004016200024b919062000791565b60405180910390fd5b508080620002629062000856565b91505062000148565b50836000806101000a81548173ffffffffffffffffffffffffffffffffffffffff021916908373ffffffffffffffffffffffffffffffffffffffff16021790555082600160006101000a81548173ffffffffffffffffffffffffffffffffffffffff021916908373ffffffffffffffffffffffffffffffffffffffff16021790555081600260006101000a81548173ffffffffffffffffffffffffffffffffffffffff021916908373ffffffffffffffffffffffffffffffffffffffff16021790555080600390805190602001906200034692919062000355565b505050505050505050620008a3565b828054828255906000526020600020908101928215620003d1579160200282015b82811115620003d05782518260006101000a81548173ffffffffffffffffffffffffffffffffffffffff021916908373ffffffffffffffffffffffffffffffffffffffff1602179055509160200191906001019062000376565b5b509050620003e09190620003e4565b5090565b5b80821115620003ff576000816000905550600101620003e5565b5090565b6000604051905090565b600080fd5b600080fd5b600073ffffffffffffffffffffffffffffffffffffffff82169050919050565b6000620004448262000417565b9050919050565b6000620004588262000437565b9050919050565b6200046a816200044b565b81146200047657600080fd5b50565b6000815190506200048a816200045f565b92915050565b60006200049d8262000437565b9050919050565b620004af8162000490565b8114620004bb57600080fd5b50565b600081519050620004cf81620004a4565b92915050565b6000620004e28262000437565b9050919050565b620004f481620004d5565b81146200050057600080fd5b50565b6000815190506200051481620004e9565b92915050565b600080fd5b6000601f19601f8301169050919050565b7f4e487b7100000000000000000000000000000000000000000000000000000000600052604160045260246000fd5b6200056a826200051f565b810181811067ffffffffffffffff821117156200058c576200058b62000530565b5b80604052505050565b6000620005a162000403565b9050620005af82826200055f565b919050565b600067ffffffffffffffff821115620005d257620005d162000530565b5b602082029050602081019050919050565b600080fd5b620005f38162000437565b8114620005ff57600080fd5b50565b6000815190506200061381620005e8565b92915050565b6000620006306200062a84620005b4565b62000595565b90508083825260208201905060208402830185811115620006565762000655620005e3565b5b835b818110156200068357806200066e888262000602565b84526020840193505060208101905062000658565b5050509392505050565b600082601f830112620006a557620006a46200051a565b5b8151620006b784826020860162000619565b91505092915050565b60008060008060808587031215620006dd57620006dc6200040d565b5b6000620006ed8782880162000479565b94505060206200070087828801620004be565b9350506040620007138782880162000503565b925050606085015167ffffffffffffffff81111562000737576200073662000412565b5b62000745878288016200068d565b91505092959194509250565b7f4e487b7100000000000000000000000000000000000000000000000000000000600052603260045260246000fd5b6200078b8162000437565b82525050565b6000602082019050620007a8600083018462000780565b92915050565b60008115159050919050565b620007c581620007ae565b8114620007d157600080fd5b50565b600081519050620007e581620007ba565b92915050565b6000602082840312156200080457620008036200040d565b5b60006200081484828501620007d4565b91505092915050565b7f4e487b7100000000000000000000000000000000000000000000000000000000600052601160045260246000fd5b6000819050919050565b600062000863826200084c565b91507fffffffffffffffffffffffffffffffffffffffffffffffffffffffffffffffff82036200089857620008976200081d565b5b600182019050919050565b6135fc80620008b36000396000f3fe6080604052600436106100e85760003560e01c80635b18f86f1161008a578063d0380f5011610059578063d0380f50146102af578063dca3e5a1146102cb578063fd8f2118146102f6578063fdb39b8f14610312576100e8565b80635b18f86f146102145780635bc0e6421461023057806386cefe401461025b578063b75c7dc614610286576100e8565b80631f1cc1fd116100c65780631f1cc1fd146101625780632f9832391461017e57806340be9af7146101bb57806358aa3b54146101d7576100e8565b806301ffc9a7146100ed5780630d245fc51461012a5780631d3b92c714610146575b600080fd5b3480156100f957600080fd5b50610114600480360381019061010f919061195b565b61032e565b60405161012191906119a3565b60405180910390f35b610144600480360381019061013f9190611cea565b610400565b005b610160600480360381019061015b9190611f2d565b6104ae565b005b61017c6004803603810190610177919061217a565b6105a9565b005b34801561018a57600080fd5b506101a560048036038101906101a091906121f2565b61074e565b6040516101b2919061224a565b60405180910390f35b6101d560048036038101906101d09190612265565b61077e565b005b3480156101e357600080fd5b506101fe60048036038101906101f99190612313565b61083b565b60405161020b919061234f565b60405180910390f35b61022e6004803603810190610229919061236a565b61087a565b005b34801561023c57600080fd5b50610245610933565b6040516102529190612454565b60405180910390f35b34801561026757600080fd5b50610270610959565b60405161027d9190612490565b60405180910390f35b34801561029257600080fd5b506102ad60048036038101906102a891906124ab565b61097f565b005b6102c960048036038101906102c4919061267c565b61098b565b005b3480156102d757600080fd5b506102e0610b8f565b6040516102ed9190612744565b60405180910390f35b610310600480360381019061030b919061275f565b610bb3565b005b61032c60048036038101906103279190612806565b610d97565b005b60007f01ffc9a7000000000000000000000000000000000000000000000000000000007bffffffffffffffffffffffffffffffffffffffffffffffffffffffff1916827bffffffffffffffffffffffffffffffffffffffffffffffffffffffff191614806103f957507f049d9b0f000000000000000000000000000000000000000000000000000000007bffffffffffffffffffffffffffffffffffffffffffffffffffffffff1916827bffffffffffffffffffffffffffffffffffffffffffffffffffffffff1916145b9050919050565b61040981610f2a565b610414823483610f6c565b60008054906101000a900473ffffffffffffffffffffffffffffffffffffffff1673ffffffffffffffffffffffffffffffffffffffff166399a774b4836040518263ffffffff1660e01b815260040161046d9190612a2d565b600060405180830381600087803b15801561048757600080fd5b505af115801561049b573d6000803e3d6000fd5b505050506104aa823483610f71565b5050565b6104b88383610f76565b60006104c384610fd1565b90508260600151816060019073ffffffffffffffffffffffffffffffffffffffff16908173ffffffffffffffffffffffffffffffffffffffff168152505061050c8134846111e6565b5060008054906101000a900473ffffffffffffffffffffffffffffffffffffffff1673ffffffffffffffffffffffffffffffffffffffff1663a9f4abcb826040518263ffffffff1660e01b81526004016105669190612b71565b600060405180830381600087803b15801561058057600080fd5b505af1158015610594573d6000803e3d6000fd5b505050506105a38134846113ed565b50505050565b80518251036105e4576040517fa24a13a600000000000000000000000000000000000000000000000000000000815260040160405180910390fd5b60005b82518110156107495761061382828151811061060657610605612b93565b5b6020026020010151610f2a565b61065283828151811061062957610628612b93565b5b60200260200101513484848151811061064557610644612b93565b5b6020026020010151610f6c565b60008054906101000a900473ffffffffffffffffffffffffffffffffffffffff1673ffffffffffffffffffffffffffffffffffffffff166399a774b48483815181106106a1576106a0612b93565b5b60200260200101516040518263ffffffff1660e01b81526004016106c59190612a2d565b600060405180830381600087803b1580156106df57600080fd5b505af11580156106f3573d6000803e3d6000fd5b5050505061073683828151811061070d5761070c612b93565b5b60200260200101513484848151811061072957610728612b93565b5b6020026020010151610f71565b808061074190612bf1565b9150506105e7565b505050565b6000816040516020016107619190612cc2565b604051602081830303815290604052805190602001209050919050565b600061078983610fd1565b905061079482610f2a565b61079f8134846111e6565b5060008054906101000a900473ffffffffffffffffffffffffffffffffffffffff1673ffffffffffffffffffffffffffffffffffffffff1663a9f4abcb826040518263ffffffff1660e01b81526004016107f99190612b71565b600060405180830381600087803b15801561081357600080fd5b505af1158015610827573d6000803e3d6000fd5b505050506108368134846113ed565b505050565b6003818154811061084b57600080fd5b906000526020600020016000915054906101000a900473ffffffffffffffffffffffffffffffffffffffff1681565b61088483836113f2565b61088d81610f2a565b610898833483610f6c565b60008054906101000a900473ffffffffffffffffffffffffffffffffffffffff1673ffffffffffffffffffffffffffffffffffffffff166399a774b4846040518263ffffffff1660e01b81526004016108f19190612a2d565b600060405180830381600087803b15801561090b57600080fd5b505af115801561091f573d6000803e3d6000fd5b5050505061092e833483610f71565b505050565b600260009054906101000a900473ffffffffffffffffffffffffffffffffffffffff1681565b600160009054906101000a900473ffffffffffffffffffffffffffffffffffffffff1681565b610988816114f6565b50565b80518351146109c6576040517fa24a13a600000000000000000000000000000000000000000000000000000000815260040160405180910390fd5b60008351346109d59190612d13565b905060005b8451811015610b8857610a218582815181106109f9576109f8612b93565b5b6020026020010151858381518110610a1457610a13612b93565b5b6020026020010151610f76565b6000610a46868381518110610a3957610a38612b93565b5b6020026020010151610fd1565b9050848281518110610a5b57610a5a612b93565b5b602002602001015160600151816060019073ffffffffffffffffffffffffffffffffffffffff16908173ffffffffffffffffffffffffffffffffffffffff1681525050610ac38184868581518110610ab657610ab5612b93565b5b60200260200101516111e6565b5060008054906101000a900473ffffffffffffffffffffffffffffffffffffffff1673ffffffffffffffffffffffffffffffffffffffff1663a9f4abcb826040518263ffffffff1660e01b8152600401610b1d9190612b71565b600060405180830381600087803b158015610b3757600080fd5b505af1158015610b4b573d6000803e3d6000fd5b50505050610b748184868581518110610b6757610b66612b93565b5b60200260200101516113ed565b508080610b8090612bf1565b9150506109da565b5050505050565b60008054906101000a900473ffffffffffffffffffffffffffffffffffffffff1681565b8051835103610bee576040517fa24a13a600000000000000000000000000000000000000000000000000000000815260040160405180910390fd5b60005b8351811015610d9157610c1d828281518110610c1057610c0f612b93565b5b6020026020010151610f2a565b610c5b848281518110610c3357610c32612b93565b5b6020026020010151848381518110610c4e57610c4d612b93565b5b60200260200101516113f2565b610c9a848281518110610c7157610c70612b93565b5b602002602001015134848481518110610c8d57610c8c612b93565b5b6020026020010151610f6c565b60008054906101000a900473ffffffffffffffffffffffffffffffffffffffff1673ffffffffffffffffffffffffffffffffffffffff166399a774b4858381518110610ce957610ce8612b93565b5b60200260200101516040518263ffffffff1660e01b8152600401610d0d9190612a2d565b600060405180830381600087803b158015610d2757600080fd5b505af1158015610d3b573d6000803e3d6000fd5b50505050610d7e848281518110610d5557610d54612b93565b5b602002602001015134848481518110610d7157610d70612b93565b5b6020026020010151610f71565b8080610d8990612bf1565b915050610bf1565b50505050565b8051825114610dd2576040517fa24a13a600000000000000000000000000000000000000000000000000000000815260040160405180910390fd5b6000825134610de19190612d13565b905060005b8351811015610f24576000610e14858381518110610e0757610e06612b93565b5b6020026020010151610fd1565b9050610e39848381518110610e2c57610e2b612b93565b5b6020026020010151610f2a565b610e5e8184868581518110610e5157610e50612b93565b5b60200260200101516111e6565b905060008054906101000a900473ffffffffffffffffffffffffffffffffffffffff1673ffffffffffffffffffffffffffffffffffffffff1663a9f4abcb826040518263ffffffff1660e01b8152600401610eb99190612b71565b600060405180830381600087803b158015610ed357600080fd5b505af1158015610ee7573d6000803e3d6000fd5b50505050610f108184868581518110610f0357610f02612b93565b5b60200260200101516113ed565b508080610f1c90612bf1565b915050610de6565b50505050565b600380549050815114610f69576040517fa24a13a600000000000000000000000000000000000000000000000000000000815260040160405180910390fd5b50565b505050565b505050565b600082604051602001610f899190612cc2565b6040516020818303038152906040528051906020012090506000610fac826114fb565b9050610fcb836060015182856000015186602001518760400151611531565b50505050565b610fd9611821565b600060405180610180016040528084604051602001610ff89190612cc2565b60405160208183030381529060405280519060200120815260200184600001518152602001846020015181526020013373ffffffffffffffffffffffffffffffffffffffff168152602001846060015173ffffffffffffffffffffffffffffffffffffffff1681526020013073ffffffffffffffffffffffffffffffffffffffff1681526020014267ffffffffffffffff168152602001600067ffffffffffffffff168152602001846080015167ffffffffffffffff1681526020016000151581526020016000151581526020018460a0015181525090503073ffffffffffffffffffffffffffffffffffffffff16600160009054906101000a900473ffffffffffffffffffffffffffffffffffffffff1673ffffffffffffffffffffffffffffffffffffffff1663a2ea7c6e83602001516040518263ffffffff1660e01b8152600401611146919061224a565b600060405180830381865afa158015611163573d6000803e3d6000fd5b505050506040513d6000823e3d601f19601f8201168201806040525081019061118c9190613077565b6060015173ffffffffffffffffffffffffffffffffffffffff16146111dd576040517f1a7bfc4d00000000000000000000000000000000000000000000000000000000815260040160405180910390fd5b80915050919050565b6111ee611821565b60008060009054906101000a900473ffffffffffffffffffffffffffffffffffffffff1673ffffffffffffffffffffffffffffffffffffffff1663ef4d6e02866080015187602001516040518363ffffffff1660e01b81526004016112549291906130c0565b602060405180830381865afa158015611271573d6000803e3d6000fd5b505050506040513d601f19601f8201168201806040525081019061129591906130e9565b905080156112cf576040517f35d9080500000000000000000000000000000000000000000000000000000000815260040160405180910390fd5b6112d7611821565b60005b6003805490508110156113e0576000600382815481106112fd576112fc612b93565b5b9060005260206000200160009054906101000a900473ffffffffffffffffffffffffffffffffffffffff1673ffffffffffffffffffffffffffffffffffffffff1663507a7f20898989868151811061135857611357612b93565b5b60200260200101516040518463ffffffff1660e01b815260040161137e9392919061316f565b6000604051808303816000875af115801561139d573d6000803e3d6000fd5b505050506040513d6000823e3d601f19601f820116820180604052508101906113c69190613307565b5090508092505080806113d890612bf1565b9150506112da565b5080925050509392505050565b505050565b6000826040516020016114059190612a2d565b6040516020818303038152906040528051906020012090506000611428826114fb565b905060008060009054906101000a900473ffffffffffffffffffffffffffffffffffffffff1673ffffffffffffffffffffffffffffffffffffffff1663a3112a6486600001516040518263ffffffff1660e01b815260040161148a919061224a565b600060405180830381865afa1580156114a7573d6000803e3d6000fd5b505050506040513d6000823e3d601f19601f820116820180604052508101906114d0919061337f565b60a0015190506114ef8183866000015187602001518860400151611531565b5050505050565b600080fd5b60007f19457468657265756d205369676e6564204d6573736167653a0a33320000000060005281601c52603c6000209050919050565b600061153f858585856115ae565b90508573ffffffffffffffffffffffffffffffffffffffff168173ffffffffffffffffffffffffffffffffffffffff16146115a6576040517f8baa579f00000000000000000000000000000000000000000000000000000000815260040160405180910390fd5b505050505050565b60008060006115bf878787876115d9565b915091506115cc816116bb565b8192505050949350505050565b6000807f7fffffffffffffffffffffffffffffff5d576e7357a4501ddfe92f46681b20a08360001c11156116145760006003915091506116b2565b60006001878787876040516000815260200160405260405161163994939291906133d7565b6020604051602081039080840390855afa15801561165b573d6000803e3d6000fd5b505050602060405103519050600073ffffffffffffffffffffffffffffffffffffffff168173ffffffffffffffffffffffffffffffffffffffff16036116a9576000600192509250506116b2565b80600092509250505b94509492505050565b600060048111156116cf576116ce61341c565b5b8160048111156116e2576116e161341c565b5b031561181e57600160048111156116fc576116fb61341c565b5b81600481111561170f5761170e61341c565b5b0361174f576040517f08c379a0000000000000000000000000000000000000000000000000000000008152600401611746906134a8565b60405180910390fd5b600260048111156117635761176261341c565b5b8160048111156117765761177561341c565b5b036117b6576040517f08c379a00000000000000000000000000000000000000000000000000000000081526004016117ad90613514565b60405180910390fd5b600360048111156117ca576117c961341c565b5b8160048111156117dd576117dc61341c565b5b0361181d576040517f08c379a0000000000000000000000000000000000000000000000000000000008152600401611814906135a6565b60405180910390fd5b5b50565b604051806101800160405280600080191681526020016000801916815260200160008019168152602001600073ffffffffffffffffffffffffffffffffffffffff168152602001600073ffffffffffffffffffffffffffffffffffffffff168152602001600073ffffffffffffffffffffffffffffffffffffffff168152602001600067ffffffffffffffff168152602001600067ffffffffffffffff168152602001600067ffffffffffffffff168152602001600015158152602001600015158152602001606081525090565b6000604051905090565b600080fd5b600080fd5b60007fffffffff0000000000000000000000000000000000000000000000000000000082169050919050565b61193881611903565b811461194357600080fd5b50565b6000813590506119558161192f565b92915050565b600060208284031215611971576119706118f9565b5b600061197f84828501611946565b91505092915050565b60008115159050919050565b61199d81611988565b82525050565b60006020820190506119b86000830184611994565b92915050565b600080fd5b6000601f19601f8301169050919050565b7f4e487b7100000000000000000000000000000000000000000000000000000000600052604160045260246000fd5b611a0c826119c3565b810181811067ffffffffffffffff82111715611a2b57611a2a6119d4565b5b80604052505050565b6000611a3e6118ef565b9050611a4a8282611a03565b919050565b600080fd5b6000819050919050565b611a6781611a54565b8114611a7257600080fd5b50565b600081359050611a8481611a5e565b92915050565b600067ffffffffffffffff82169050919050565b611aa781611a8a565b8114611ab257600080fd5b50565b600081359050611ac481611a9e565b92915050565b600080fd5b600067ffffffffffffffff821115611aea57611ae96119d4565b5b602082029050602081019050919050565b600080fd5b600080fd5b600067ffffffffffffffff821115611b2057611b1f6119d4565b5b611b29826119c3565b9050602081019050919050565b82818337600083830152505050565b6000611b58611b5384611b05565b611a34565b905082815260208101848484011115611b7457611b73611b00565b5b611b7f848285611b36565b509392505050565b600082601f830112611b9c57611b9b611aca565b5b8135611bac848260208601611b45565b91505092915050565b6000611bc8611bc384611acf565b611a34565b90508083825260208201905060208402830185811115611beb57611bea611afb565b5b835b81811015611c3257803567ffffffffffffffff811115611c1057611c0f611aca565b5b808601611c1d8982611b87565b85526020850194505050602081019050611bed565b5050509392505050565b600082601f830112611c5157611c50611aca565b5b8135611c61848260208601611bb5565b91505092915050565b600060608284031215611c8057611c7f6119be565b5b611c8a6060611a34565b90506000611c9a84828501611a75565b6000830152506020611cae84828501611ab5565b602083015250604082013567ffffffffffffffff811115611cd257611cd1611a4f565b5b611cde84828501611c3c565b60408301525092915050565b60008060408385031215611d0157611d006118f9565b5b600083013567ffffffffffffffff811115611d1f57611d1e6118fe565b5b611d2b85828601611c6a565b925050602083013567ffffffffffffffff811115611d4c57611d4b6118fe565b5b611d5885828601611c3c565b9150509250929050565b600073ffffffffffffffffffffffffffffffffffffffff82169050919050565b6000611d8d82611d62565b9050919050565b611d9d81611d82565b8114611da857600080fd5b50565b600081359050611dba81611d94565b92915050565b600060c08284031215611dd657611dd56119be565b5b611de060c0611a34565b90506000611df084828501611a75565b6000830152506020611e0484828501611a75565b6020830152506040611e1884828501611dab565b6040830152506060611e2c84828501611dab565b6060830152506080611e4084828501611ab5565b60808301525060a082013567ffffffffffffffff811115611e6457611e63611a4f565b5b611e7084828501611c3c565b60a08301525092915050565b600060ff82169050919050565b611e9281611e7c565b8114611e9d57600080fd5b50565b600081359050611eaf81611e89565b92915050565b600060808284031215611ecb57611eca6119be565b5b611ed56080611a34565b90506000611ee584828501611ea0565b6000830152506020611ef984828501611a75565b6020830152506040611f0d84828501611a75565b6040830152506060611f2184828501611dab565b60608301525092915050565b600080600060c08486031215611f4657611f456118f9565b5b600084013567ffffffffffffffff811115611f6457611f636118fe565b5b611f7086828701611dc0565b9350506020611f8186828701611eb5565b92505060a084013567ffffffffffffffff811115611fa257611fa16118fe565b5b611fae86828701611c3c565b9150509250925092565b600067ffffffffffffffff821115611fd357611fd26119d4565b5b602082029050602081019050919050565b6000611ff7611ff284611fb8565b611a34565b9050808382526020820190506020840283018581111561201a57612019611afb565b5b835b8181101561206157803567ffffffffffffffff81111561203f5761203e611aca565b5b80860161204c8982611c6a565b8552602085019450505060208101905061201c565b5050509392505050565b600082601f8301126120805761207f611aca565b5b8135612090848260208601611fe4565b91505092915050565b600067ffffffffffffffff8211156120b4576120b36119d4565b5b602082029050602081019050919050565b60006120d86120d384612099565b611a34565b905080838252602082019050602084028301858111156120fb576120fa611afb565b5b835b8181101561214257803567ffffffffffffffff8111156121205761211f611aca565b5b80860161212d8982611c3c565b855260208501945050506020810190506120fd565b5050509392505050565b600082601f83011261216157612160611aca565b5b81356121718482602086016120c5565b91505092915050565b60008060408385031215612191576121906118f9565b5b600083013567ffffffffffffffff8111156121af576121ae6118fe565b5b6121bb8582860161206b565b925050602083013567ffffffffffffffff8111156121dc576121db6118fe565b5b6121e88582860161214c565b9150509250929050565b600060208284031215612208576122076118f9565b5b600082013567ffffffffffffffff811115612226576122256118fe565b5b61223284828501611dc0565b91505092915050565b61224481611a54565b82525050565b600060208201905061225f600083018461223b565b92915050565b6000806040838503121561227c5761227b6118f9565b5b600083013567ffffffffffffffff81111561229a576122996118fe565b5b6122a685828601611dc0565b925050602083013567ffffffffffffffff8111156122c7576122c66118fe565b5b6122d385828601611c3c565b9150509250929050565b6000819050919050565b6122f0816122dd565b81146122fb57600080fd5b50565b60008135905061230d816122e7565b92915050565b600060208284031215612329576123286118f9565b5b6000612337848285016122fe565b91505092915050565b61234981611d82565b82525050565b60006020820190506123646000830184612340565b92915050565b600080600060c08486031215612383576123826118f9565b5b600084013567ffffffffffffffff8111156123a1576123a06118fe565b5b6123ad86828701611c6a565b93505060206123be86828701611eb5565b92505060a084013567ffffffffffffffff8111156123df576123de6118fe565b5b6123eb86828701611c3c565b9150509250925092565b6000819050919050565b600061241a61241561241084611d62565b6123f5565b611d62565b9050919050565b600061242c826123ff565b9050919050565b600061243e82612421565b9050919050565b61244e81612433565b82525050565b60006020820190506124696000830184612445565b92915050565b600061247a82612421565b9050919050565b61248a8161246f565b82525050565b60006020820190506124a56000830184612481565b92915050565b6000602082840312156124c1576124c06118f9565b5b60006124cf84828501611a75565b91505092915050565b600067ffffffffffffffff8211156124f3576124f26119d4565b5b602082029050602081019050919050565b6000612517612512846124d8565b611a34565b9050808382526020820190506020840283018581111561253a57612539611afb565b5b835b8181101561258157803567ffffffffffffffff81111561255f5761255e611aca565b5b80860161256c8982611dc0565b8552602085019450505060208101905061253c565b5050509392505050565b600082601f8301126125a05761259f611aca565b5b81356125b0848260208601612504565b91505092915050565b600067ffffffffffffffff8211156125d4576125d36119d4565b5b602082029050602081019050919050565b60006125f86125f3846125b9565b611a34565b9050808382526020820190506080840283018581111561261b5761261a611afb565b5b835b8181101561264457806126308882611eb5565b84526020840193505060808101905061261d565b5050509392505050565b600082601f83011261266357612662611aca565b5b81356126738482602086016125e5565b91505092915050565b600080600060608486031215612695576126946118f9565b5b600084013567ffffffffffffffff8111156126b3576126b26118fe565b5b6126bf8682870161258b565b935050602084013567ffffffffffffffff8111156126e0576126df6118fe565b5b6126ec8682870161264e565b925050604084013567ffffffffffffffff81111561270d5761270c6118fe565b5b6127198682870161214c565b9150509250925092565b600061272e82612421565b9050919050565b61273e81612723565b82525050565b60006020820190506127596000830184612735565b92915050565b600080600060608486031215612778576127776118f9565b5b600084013567ffffffffffffffff811115612796576127956118fe565b5b6127a28682870161206b565b935050602084013567ffffffffffffffff8111156127c3576127c26118fe565b5b6127cf8682870161264e565b925050604084013567ffffffffffffffff8111156127f0576127ef6118fe565b5b6127fc8682870161214c565b9150509250925092565b6000806040838503121561281d5761281c6118f9565b5b600083013567ffffffffffffffff81111561283b5761283a6118fe565b5b6128478582860161258b565b925050602083013567ffffffffffffffff811115612868576128676118fe565b5b6128748582860161214c565b9150509250929050565b61288781611a54565b82525050565b61289681611a8a565b82525050565b600081519050919050565b600082825260208201905092915050565b6000819050602082019050919050565b600081519050919050565b600082825260208201905092915050565b60005b838110156129025780820151818401526020810190506128e7565b60008484015250505050565b6000612919826128c8565b61292381856128d3565b93506129338185602086016128e4565b61293c816119c3565b840191505092915050565b6000612953838361290e565b905092915050565b6000602082019050919050565b60006129738261289c565b61297d81856128a7565b93508360208202850161298f856128b8565b8060005b858110156129cb57848403895281516129ac8582612947565b94506129b78361295b565b925060208a01995050600181019050612993565b50829750879550505050505092915050565b60006060830160008301516129f5600086018261287e565b506020830151612a08602086018261288d565b5060408301518482036040860152612a208282612968565b9150508091505092915050565b60006020820190508181036000830152612a4781846129dd565b905092915050565b612a5881611d82565b82525050565b612a6781611988565b82525050565b600061018083016000830151612a86600086018261287e565b506020830151612a99602086018261287e565b506040830151612aac604086018261287e565b506060830151612abf6060860182612a4f565b506080830151612ad26080860182612a4f565b5060a0830151612ae560a0860182612a4f565b5060c0830151612af860c086018261288d565b5060e0830151612b0b60e086018261288d565b50610100830151612b2061010086018261288d565b50610120830151612b35610120860182612a5e565b50610140830151612b4a610140860182612a5e565b50610160830151848203610160860152612b648282612968565b9150508091505092915050565b60006020820190508181036000830152612b8b8184612a6d565b905092915050565b7f4e487b7100000000000000000000000000000000000000000000000000000000600052603260045260246000fd5b7f4e487b7100000000000000000000000000000000000000000000000000000000600052601160045260246000fd5b6000612bfc826122dd565b91507fffffffffffffffffffffffffffffffffffffffffffffffffffffffffffffffff8203612c2e57612c2d612bc2565b5b600182019050919050565b600060c083016000830151612c51600086018261287e565b506020830151612c64602086018261287e565b506040830151612c776040860182612a4f565b506060830151612c8a6060860182612a4f565b506080830151612c9d608086018261288d565b5060a083015184820360a0860152612cb58282612968565b9150508091505092915050565b60006020820190508181036000830152612cdc8184612c39565b905092915050565b7f4e487b7100000000000000000000000000000000000000000000000000000000600052601260045260246000fd5b6000612d1e826122dd565b9150612d29836122dd565b925082612d3957612d38612ce4565b5b828204905092915050565b600081519050612d5381611a5e565b92915050565b600081519050612d68816122e7565b92915050565b600081519050612d7d81611d94565b92915050565b612d8c81611988565b8114612d9757600080fd5b50565b600081519050612da981612d83565b92915050565b6000612dc2612dbd84611b05565b611a34565b905082815260208101848484011115612dde57612ddd611b00565b5b612de98482856128e4565b509392505050565b600082601f830112612e0657612e05611aca565b5b8151612e16848260208601612daf565b91505092915050565b6000612e32612e2d84611acf565b611a34565b90508083825260208201905060208402830185811115612e5557612e54611afb565b5b835b81811015612e9c57805167ffffffffffffffff811115612e7a57612e79611aca565b5b808601612e878982612df1565b85526020850194505050602081019050612e57565b5050509392505050565b600082601f830112612ebb57612eba611aca565b5b8151612ecb848260208601612e1f565b91505092915050565b600067ffffffffffffffff821115612eef57612eee6119d4565b5b612ef8826119c3565b9050602081019050919050565b6000612f18612f1384612ed4565b611a34565b905082815260208101848484011115612f3457612f33611b00565b5b612f3f8482856128e4565b509392505050565b600082601f830112612f5c57612f5b611aca565b5b8151612f6c848260208601612f05565b91505092915050565b60006101008284031215612f8c57612f8b6119be565b5b612f97610100611a34565b90506000612fa784828501612d44565b6000830152506020612fbb84828501612d59565b6020830152506040612fcf84828501612d6e565b6040830152506060612fe384828501612d6e565b6060830152506080612ff784828501612d9a565b60808301525060a061300b84828501612d9a565b60a08301525060c082015167ffffffffffffffff81111561302f5761302e611a4f565b5b61303b84828501612ea6565b60c08301525060e082015167ffffffffffffffff81111561305f5761305e611a4f565b5b61306b84828501612f47565b60e08301525092915050565b60006020828403121561308d5761308c6118f9565b5b600082015167ffffffffffffffff8111156130ab576130aa6118fe565b5b6130b784828501612f75565b91505092915050565b60006040820190506130d56000830185612340565b6130e2602083018461223b565b9392505050565b6000602082840312156130ff576130fe6118f9565b5b600061310d84828501612d9a565b91505092915050565b61311f816122dd565b82525050565b600082825260208201905092915050565b6000613141826128c8565b61314b8185613125565b935061315b8185602086016128e4565b613164816119c3565b840191505092915050565b600060608201905081810360008301526131898186612a6d565b90506131986020830185613116565b81810360408301526131aa8184613136565b9050949350505050565b6000815190506131c381611a9e565b92915050565b600061018082840312156131e0576131df6119be565b5b6131eb610180611a34565b905060006131fb84828501612d44565b600083015250602061320f84828501612d44565b602083015250604061322384828501612d44565b604083015250606061323784828501612d6e565b606083015250608061324b84828501612d6e565b60808301525060a061325f84828501612d6e565b60a08301525060c0613273848285016131b4565b60c08301525060e0613287848285016131b4565b60e08301525061010061329c848285016131b4565b610100830152506101206132b284828501612d9a565b610120830152506101406132c884828501612d9a565b6101408301525061016082015167ffffffffffffffff8111156132ee576132ed611a4f565b5b6132fa84828501612ea6565b6101608301525092915050565b6000806040838503121561331e5761331d6118f9565b5b600083015167ffffffffffffffff81111561333c5761333b6118fe565b5b613348858286016131c9565b925050602083015167ffffffffffffffff811115613369576133686118fe565b5b61337585828601612df1565b9150509250929050565b600060208284031215613395576133946118f9565b5b600082015167ffffffffffffffff8111156133b3576133b26118fe565b5b6133bf848285016131c9565b91505092915050565b6133d181611e7c565b82525050565b60006080820190506133ec600083018761223b565b6133f960208301866133c8565b613406604083018561223b565b613413606083018461223b565b95945050505050565b7f4e487b7100000000000000000000000000000000000000000000000000000000600052602160045260246000fd5b600082825260208201905092915050565b7f45434453413a20696e76616c6964207369676e61747572650000000000000000600082015250565b600061349260188361344b565b915061349d8261345c565b602082019050919050565b600060208201905081810360008301526134c181613485565b9050919050565b7f45434453413a20696e76616c6964207369676e6174757265206c656e67746800600082015250565b60006134fe601f8361344b565b9150613509826134c8565b602082019050919050565b6000602082019050818103600083015261352d816134f1565b9050919050565b7f45434453413a20696e76616c6964207369676e6174757265202773272076616c60008201527f7565000000000000000000000000000000000000000000000000000000000000602082015250565b600061359060228361344b565b915061359b82613534565b604082019050919050565b600060208201905081810360008301526135bf81613583565b905091905056fea2646970667358221220a5eb932b94dd2f4371b4d9018b2d5844be18363464bd45be0ee18631a154310364736f6c63430008140033",
  "immutableReferences": {},
  "source": "// SPDX-License-Identifier: MIT\npragma solidity ^0.8.20;\n\nimport \"../../base/Attestor.sol\";\n\ncontract KarmaAuditAttestor is Attestor {\n    error AlreadyAttested();\n    error ModuleFailed(address module);\n\n    constructor(\n        MasterRegistry _masterRegistry,\n        SchemasRegistry _schemasRegistry,\n        ModulesRegistry _modulesRegistry,\n        address[] memory _modules\n    ) Attestor(_masterRegistry, _schemasRegistry, _modulesRegistry, _modules) {}\n\n    // This hook is called before attesting to the master registry\n    // in the \"attest\" function.\n    // Every module is run before the attestation can be attested.\n    function _beforeAttest(\n        Attestation memory _attestation,\n        uint256 _value,\n        bytes[] memory _data\n    ) internal override returns (Attestation memory) {\n        bool owner = $masterRegistry.hasAttestation(\n            _attestation.attestee,\n            _attestation.schemaId\n        );\n        if (owner) revert AlreadyAttested();\n        Attestation memory finalAttestation;\n        for (uint256 i = 0; i < $modules.length; i++) {\n            (Attestation memory attestation, ) = Module($modules[i]).run(\n                _attestation,\n                _value,\n                _data[i]\n            );\n\n            // todo ?\n            finalAttestation = attestation;\n        }\n        return finalAttestation;\n    }\n\n    // Hook called after attesting to the master registry.\n    function _afterAttest(\n        Attestation memory attestation,\n        uint256 value,\n        bytes[] memory data\n    ) internal override {}\n\n    // Hook called before updating an attestation.\n    function _beforeUpdate(\n        UpdateRequest memory _updateRequest,\n        uint256 value,\n        bytes[] memory data\n    ) internal override {}\n\n    // Hook called after updating an attestation.\n    function _afterUpdate(\n        UpdateRequest memory _updateRequest,\n        uint256 value,\n        bytes[] memory data\n    ) internal override {}\n}\n",
  "sourcePath": "/Users/jenya/IdeaProjects/karma/karma-metamask-contracts/contracts/karma/audits/KarmaAuditAttestor.sol",
  "compiler": {
    "name": "solc",
    "version": "0.8.20+commit.a1b79de6.Emscripten.clang"
  },
  "schemaVersion": "3.4.14",
  "updatedAt": "2023-08-01T22:18:41.977Z",
  "devdoc": {
    "kind": "dev",
    "methods": {
      "supportsInterface(bytes4)": {
        "details": "Returns true if this contract implements the interface defined by `interfaceId`. See the corresponding https://eips.ethereum.org/EIPS/eip-165#how-interfaces-are-identified[EIP section] to learn more about how these ids are created. This function call must use less than 30 000 gas."
      }
    },
    "version": 1
  },
  "userdoc": {
    "kind": "user",
    "methods": {},
    "version": 1
  }
}